003         9999900012412210201000000000034500BANGOURA      SEKOU OUMAR     0011000581700581000000     00000000000000000000000000002765
013         9999900012419640964000000000013500DIOP          NDIEME          0061001543001543000000     00000000000000000000000020007333
001         9999900012719613787000000000029000BA            KHARDIATA       0061003228903228000000     00000000000000000000000000015345
013         9999900012819503987000000000003000NDOUR         MAMADOU         0051000333300000000000     00000000000000000000000000000000
001         9999900012912217032000000000137000FAYE          AMAR            0011014376806000000000     00000000000000000000000000068327
009         9999900012919602060000000000018000FEU           KORKA DIOP CO   0061002004302004000000     00000000000000000000000020009525
003         9999900013010531256000000000031500FALL          IBRA            0011003200303200000000     00000000000000000000000000015210
009         9999900013010617127000000000034500SENE          NGOR            0011000557200557000000     00000000000000000000000000002648
009         9999900013010620522000000000034000SENE          BIRAMA          0011000867400867000000     00000000000000000000000020004123
003         9999900013012310405000000000034000DIALLO        MOUHAMED        0011000869500869000000     00000000000000000000000000004132
005         9999900013119619863000000000010000DIENG         FATOU           0061001138901138000000     00000000000000000000000020005413
001         9999900013212217065000000000144500NIANG         SEYNABOU        0011015148306000000000     00000000000000000000000020071993
001         9999900013219602598000000000012000SEYNABOU      NIANG           0061001306201306000000     00000000000000000000000000006208
003         9999900013219627361000000000011500DIAW          NGOYE           0061001275601275000000     00000000000000000000000000006063
013         9999900013310710772000000000033000SO            IBRAHIMA        0011001373601373000000     00000000000000000000000020006528
009         9999900013319601479000000000004000KANDJI        NDIOUFA         0061000440900440000000     00000000000000000000000020002095
013         9999900013319638120000000000009000LY            AMINATA DAOUDA  0061001045001045000000     00000000000000000000000020004966
013         9999900013319664615000000000049000DIAKHATE      FATOU           0061005522905522000000     00000000000000000000000000026248
003         9999900013391670025000000000066000WALTZER       MARIE ANTOINETTE0011007288406000000000     00000000000000000000000000034639
002         9999900013410200308000000000032000SYLLA         AMADOU          0011002898202898000000     00000000000000000000000000013774
009         9999900013410610588000000000032000KANE          ABDOU           0011002573702573000000     00000000000000000000000020012232
013         9999900013410720605000000000033500FAYE          DIALIGUE        0011001530801530000000     00000000000000000000000020007275
009         9999900013419607666000000000005500NGOM          DABA            0061000645000645000000     00000000000000000000000020003065
011         9999900013510300063000000000032000DIOP          AMETH           0011002432902432000000     00000000000000000000000000011562
013         9999900013510710564000000000031000KANTE         ABDOU           0011003465603465000000     00000000000000000000000020016471
009         9999900013519613103000000000024500THIAM         FATOU           0061002765602765000000     00000000000000000000000020013144
013         9999900013519613954000000000011000SYLLA         ARAMATOULAYE    0061001232801232000000     00000000000000000000000000005859
011         9999900013519620126000000000009000KA            YACINE          0061001018501018000000     00000000000000000000000020004840
011         9999900013519655879000000000011000KANE          FATOU           0061001253201253000000     00000000000000000000000020005956
013         9999900013519661557000000000024000DIOUF         NDAMA           0061002677802677000000     00000000000000000000000000012726
002         9999900013610200330000000000032000KOULIBALY     OUMAR           0011002322702322000000     00000000000000000000000020011039
003         9999900013610537075000000000052000DIAGNE        MALICK          0011005882205882000000     00000000000000000000000020027955
013         9999900013610710374000000000033000DIOUF         PAUL            0011003751403751000000     00000000000000000000000020017829
013         9999900013610710841000000000032000KA            EL HADJI GAYE   0011002879902879000000     00000000000000000000000020013687
009         9999900013610760703000000000033500SECK          BENOIT          0013001047001047000000     00000000000000000000000000004976
009         9999900013619603817000000000024000SENE          FATOU           0061002669602669000000     00000000000000000000000020012688
009         9999900013619637704000000000014000GNINGUE       COUMBA          0061001579701579000000     00000000000000000000000020007508
006         9999900013619640903000000000018000LY            SAWDATOU        0061002034902034000000     00000000000000000000000020009671
009         9999900013619650829000000000011500DIONE         GAGNESSIRY      0061001275601275000000     00000000000000000000000000006063
013         9999900013619653986000000000016000DIABY         FATOU           0061001802201802000000     00000000000000000000000000008565
013         9999900013619661296000000000008000BADIANE       FATOU           0061000918500918000000     00000000000000000000000020004365
005         9999900013710620596000000000035500DIOP          MAMADOU         0011003998303998000000     00000000000000000000000000019002
013         9999900013710710991000000000033500DIOUF         YOUSSOU         0011001204201204000000     00000000000000000000000020005723
009         9999900013710731099000000000031500DIAGNE        MADIAGNE        0011003406403406000000     00000000000000000000000000016189
013         9999900013710741126000000000033000BARRY         IBRAHIMA        0011001677701677000000     00000000000000000000000020007973
009         9999900013719504170000000000002000GUEYE         COUMBA          0051000166700000000000     00000000000000000000000020000000
009         9999900013719606314000000000006500GUEYE         COUMBA          0061000716400716000000     00000000000000000000000000003405
013         9999900013719610417000000000026500DIOUF         NIELANE         0061003016603016000000     00000000000000000000000020014337
005         9999900013719610545000000000031000DIENG         SOKHNA          0061003510503510000000     00000000000000000000000020016684
013         9999900013719621671000000000012500BA            TACKO           0061001432801432000000     00000000000000000000000020006809
013         9999900013719623323000000000010500NDIAYE        MAME ANTA       0061001198101198000000     00000000000000000000000020005694
009         9999900013719639471000000000012500NDOUR         MBAMBY          0061001432801432000000     00000000000000000000000020006809
003         9999900013719662921000000000012000MBODJ         AMINATA         0061001349101349000000     00000000000000000000000000006412
009         9999900013719671865000000000009500SOW           MARIAMA         0061001051101051000000     00000000000000000000000000004996
013         9999900013719676876000000000007500DIOP          MAGATTE         0061000875600875000000     00000000000000000000000000004161
011         9999900013810410015000000000071000SECK          SALIOU          0011007778306000000000     00000000000000000000000020036967
011         9999900013810410433000000000032500NGOM          TALLA           0011002163502163000000     00000000000000000000000020010282
005         9999900013810510623000000000032000NDIAYE        OMAR            0011002765602765000000     00000000000000000000000000013144
011         9999900013810720924000000000033500KEBE          NDIAYE          0011001440901440000000     00000000000000000000000000006848
006         9999900013810760051000000000035500SARR          ISMAILA         0011003975903975000000     00000000000000000000000000018896
013         9999900013819614860000000000014500SY            AIDA            0061001632801632000000     00000000000000000000000000007760
006         9999900013819638433000000000018500FAYE          DIBOR           0061002063502063000000     00000000000000000000000000009807
013         9999900013819639286000000000030500KA            BINETA          0061003428903428000000     00000000000000000000000000016296
003         9999900013819643535000000000018500TALL          AIDA            0061002124702124000000     00000000000000000000000000010098
009         9999900013819653443000000000012500DIAW          NDIATHE         0061001436901436000000     00000000000000000000000020006829
013         9999900013819673278000000000026500DIOUF         MARIAMA         0061002977802977000000     00000000000000000000000020014152
011         9999900013910410406000000000032500KANE          MAMADOU         0011002530802530000000     00000000000000000000000020012028
013         9999900013910510971000000000031000FALL          ABDOU           0011003459503459000000     00000000000000000000000000017266
001         9999900013912210689000000000031500KONEZ         YAYE SATA NDIAYE0011002908402908000000     00000000000000000000000000013823
001         9999900013919506607000000000003000KONEZ         YAYE SATA       0051000333300000000000     00000000000000000000000000000000
009         9999900013919604782000000000018000NDAO          MARIAMA         0061002055302055000000     00000000000000000000000000009768
013         9999900013919608317000000000062500GUEYE         FAGOUDA         0061006912906000000000     00000000000000000000000000032854
013         9999900013919609003000000000029500DIOP          FATOU           0061003335003335000000     00000000000000000000000020015850
009         9999900013919609331000000000012500DIALLO        AWA             0061001402201402000000     00000000000000000000000020006664
009         9999900013919610079000000000015500FALL          AISSA           0061001743001743000000     00000000000000000000000020008284
013         9999900013919611663000000000007000DIAW          MAGATTE         0061000810300810000000     00000000000000000000000020003851
003         9999900013919613085000000000009500DIENG         FAMA            0061001100101100000000     00000000000000000000000000005228
011         9999900013919628897000000000020000DIENG         FATOU           0061002290002290000000     00000000000000000000000000010883
005         9999900013919636507000000000007500DIOP          BINTOU          0061000871500871000000     00000000000000000000000000004142
009         9999900013919641581000000000007500KAMA          THIORO          0061000867400867000000     00000000000000000000000000004123
009         9999900013919651743000000000016000KASSE         FATOU           0061001781801781000000     00000000000000000000000000008468
003         9999900013919651791000000000020500WADE          COUMBA SALL     0061002283902283000000     00000000000000000000000000010854
009         9999900013919652245000000000033000FALL          FATOU           0061003712603712000000     00000000000000000000000000017644
003         9999900013919652737000000000017000MBENGUE       FATOU           0061001924701924000000     00000000000000000000000000009147
009         9999900013919653930000000000012500POUYE         SEYNABOU        0061001402201402000000     00000000000000000000000000006664
009         9999900013919663561000000000017500NDIAYE        FATOU           0061001965501965000000     00000000000000000000000020009341
013         9999900013919664052000000000019500DIABO         NENE            0061002169602169000000     00000000000000000000000000010311
009         9999900013919669417000000000015000DIOP          MAREMA          0061001704201704000000     00000000000000000000000000008100
003         9999900013919670915000000000031000DIALLO        KHADY           0061003530903530000000     00000000000000000000000020016781
003         9999900013919707091000000000033000DIENG         IGO             0011001726701726000000     00000000000000000000000000008206
011         9999900014010417104000000000034000GUEYE         AMSATOU         0011000832700832000000     00000000000000000000000020003958
009         9999900014010610698000000000032000DIENG         MAMADOU         0011002477802477000000     00000000000000000000000020011776
009         9999900014010617140000000000044000CAMARA        MOUSSA          0011004959604959000000     00000000000000000000000000023571
013         9999900014010710384000000000031500FALL          PAPA            0011003530903530000000     00000000000000000000000000016781
013         9999900014010710807000000000031500ATHIE         AMADOU          0011003077803077000000     00000000000000000000000020014628
013         9999900014010710875000000000033000NDAO          DIOULY          0011001506301506000000     00000000000000000000000020007159
013         9999900014010710928000000000033500KEITA         ISSA            0011001243001243000000     00000000000000000000000000005907
013         9999900014010710947000000000033500DIALLO        ALIOU           0011003777903777000000     00000000000000000000000000017955
006         9999900014010760271000000000065500SENE          SERIGNE MOUR    0011007219006000000000     00000000000000000000000020034309
003         9999900014010760626000000000032500SALL          ALIOU           0011002390002390000000     00000000000000000000000020011359
013         9999900014010767002000000000070500FALL          BABACAR         0011007702706000000000     00000000000000000000000000036608
003         9999900014012310422000000000032000SY            ABDOULAYE       0011002814502814000000     00000000000000000000000000013376
013         9999900014019602887000000000005500DIOUF         VOLIMATA        0061000575600575000000     00000000000000000000000000002735
009         9999900014019605753000000000018000FALL          ASTOU MBENE     0061002026702026000000     00000000000000000000000020009632
013         9999900014019611707000000000031000NDAO          FATOU           0061003510503510000000     00000000000000000000000020016684
003         9999900014019612931000000000006500NDIAYE        DIAKHERE        0061000708200708000000     00000000000000000000000000003366
009         9999900014019617601000000000029500SENE          DIOUMA          0061003367703367000000     00000000000000000000000020016005
013         9999900014019619165000000000007000DIAGNE        MAME DIOP       0061000767400767000000     00000000000000000000000000003647
009         9999900014019622111000000000016000FALL          NDELLA          0061001798101798000000     00000000000000000000000020008546
003         9999900014019623159000000000014000NIANG         FATOU           0061001610301610000000     00000000000000000000000000007653
003         9999900014019624096000000000019500FAYE          THILOR          0061002149202149000000     00000000000000000000000000010214
011         9999900014019629579000000000023500AW            MAIMOUNA        0061002671702671000000     00000000000000000000000000012697
009         9999900014019629681000000000010500DIALLO        AISSATOU        0061001216401216000000     00000000000000000000000020005781
009         9999900014019633640000000000008000DIOUF         DIOUMA          0061000922500922000000     00000000000000000000000020004384
009         9999900014019636114000000000007500NIANG         YACINE          0061000855200855000000     00000000000000000000000020004064
009         9999900014019639124000000000017000DIOP          NDEYE           0061001906301906000000     00000000000000000000000020009060
013         9999900014019640659000000000030000SECK          TOUTY           0061003371703371000000     00000000000000000000000000016024
005         9999900014019643181000000000017000BEYE          SODA            0061001926701926000000     00000000000000000000000000009157
007         9999900014019652955000000000016000NDIAYE        MAGUETTE        0061001763401763000000     00000000000000000000000000008381
013         9999900014019653567000000000024000DIOP          FATOU           0061002694102694000000     00000000000000000000000000012804
009         9999900014019656867000000000024000SECK          MBENE           0061002681902681000000     00000000000000000000000000012746
009         9999900014019659605000000000008500NDIAYE        SAFIE           0061000910300910000000     00000000000000000000000000004326
011         9999900014019666977000000000031000BA            ROUBIYATOU      0061003475803475000000     00000000000000000000000000016519
009         9999900014019670199000000000045000CAMARA        NDEYE AWA       0061005033105033000000     00000000000000000000000000023920
013         9999900014019680327000000000031000BA            AISSATOU        0061003508503508000000     00000000000000000000000020016674
001         9999900014110017018000000000087500DIALLO        AMINATA         0011009433506000000000     00000000000000000000000000044833
009         9999900014110417014000000000047000NDOYE         PATHE           0011005286205286000000     00000000000000000000000020025123
011         9999900014110417061000000000032000KANTE         SAMBA           0011002553302553000000     00000000000000000000000020012135
013         9999900014110511150000000000034000CORREA        MARIE           0011000902100902000000     00000000000000000000000000004287
003         9999900014110530914000000000033000NGOM          OMAR  SADIO     0011001404201404000000     00000000000000000000000020006674
009         9999900014110610211000000000047000NDONGI        FAP             0011005292305292000000     00000000000000000000000020025152
009         9999900014110610242000000000034500SALL          IBRA            0011002185902185000000     00000000000000000000000000010389
005         9999900014110617068000000000032500SYLLA         NGOM            0011002359402359000000     00000000000000000000000000011213
009         9999900014110617103000000000032000NGOM          MBAYE           0011002292002292000000     00000000000000000000000020010893
013         9999900014110710272000000000031500THIAW         DJIBRIL         0011003547303547000000     00000000000000000000000020016859
007         9999900014110800015000000000058500DIOP          IBRAHIMA        0011006519006000000000     00000000000000000000000020030982
001         9999900014112210038000000000129000NDONG         ELISA           0011013605306000000000     00000000000000000000000000064660
013         9999900014119613127000000000018000BA            MARIEME         0061002069602069000000     00000000000000000000000020009836
011         9999900014119626244000000000033000DIALLO        PENDA           0061003677903677000000     00000000000000000000000020017479
013         9999900014119626370000000000018000MBOUP         MBENE           0061002065502065000000     00000000000000000000000020009816
006         9999900014119627345000000000012000FAYE          AMADIARGA       0061001389901389000000     00000000000000000000000000006606
008         9999900014119631957000000000007500BA            BESSOUME        0061000896000896000000     00000000000000000000000020004258
003         9999900014119636288000000000023000DIAGNE        ANTA            0061002594102594000000     00000000000000000000000000012329
013         9999900014119636517000000000008000NDIAYE        NIAKHANA        0061000859300859000000     00000000000000000000000000004084
013         9999900014119659285000000000011500SEDY          MARIAMA         0061001255201255000000     00000000000000000000000000005966
007         9999900014119663001000000000031500SIDIBE        OUMOU           0061003561503561000000     00000000000000000000000000016927
013         9999900014119669493000000000017500NGOM          SOKHNA          0061001987901987000000     00000000000000000000000000009448
013         9999900014119671126000000000015500NDIAYE        FATOU           0061001767501767000000     00000000000000000000000000008400
007         9999900014130317003000000000116500CAMARA        SORY            0011012309306000000000     00000000000000000000000020058501
011         9999900014210427079000000000032500GUEYE         LABA            0011002116502116000000     00000000000000000000000000010059
003         9999900014210511942000000000054500MBAYE         DEMBA NDIAYE    0011006145506000000000     00000000000000000000000020029207
003         9999900014210531374000000000037500KAIRE         MOR             0011004220804220000000     00000000000000000000000020020060
003         9999900014210537116000000000051000DIOUCK        CHEIKHOU SYLLA  0011005767905767000000     00000000000000000000000020027412
003         9999900014210537258000000000034000DIOP          ASSAD HENEINE   0011001171501171000000     00000000000000000000000020005568
009         9999900014210610341000000000033000FALL          MADIAMA         0011001436901436000000     00000000000000000000000020006829
009         9999900014210617073000000000034000FALL          DAOUDA          0011000889900889000000     00000000000000000000000020004229
005         9999900014210617114000000000032500DIENG         IBRAHIMA        0011002157302157000000     00000000000000000000000000010253
009         9999900014210620218000000000032500DIOP          ALDIOUMA        0011002020602020000000     00000000000000000000000000009603
003         9999900014210711075000000000032000DIOP          SOULEYMANE      0011003647303647000000     00000000000000000000000020017334
013         9999900014210717272000000000033000DIONE         AMATH AUGUSTIN  0011002028802028000000     00000000000000000000000000009642
009         9999900014210761106000000000031500NDIAYE        KORY            0011003108403108000000     00000000000000000000000020014773
001         9999900014211010056000000000129500CAMARA        ALIOUNE         0011013609406000000000     00000000000000000000000000064680
009         9999900014211051105000000000032000BALDE         SADIO           0011003588103588000000     00000000000000000000000000017053
007         9999900014212210887000000000031500KAMARA        MAMADOU         0011003192103192000000     00000000000000000000000000015171
007         9999900014219612315000000000008000NDAO          FOUNE           0061000898000898000000     00000000000000000000000020004268
003         9999900014219613886000000000048000DIAO          ROKHAYA         0061005384205384000000     00000000000000000000000020025589
009         9999900014219617449000000000011000DIOUF         AWA             0061001202101202000000     00000000000000000000000000005713
009         9999900014219623249000000000009000FALL          DIAL            0061001016401016000000     00000000000000000000000000004831
011         9999900014219625316000000000008500NDIAYE        NDEYE           0061000938900938000000     00000000000000000000000020004462
005         9999900014219629560000000000015000DIOP          MBAYE           0061001671601671000000     00000000000000000000000020007944
005         9999900014219633257000000000014000DIAGNE        MBAYANG         0061001571601571000000     00000000000000000000000000007469
007         9999900014219636105000000000021500CISSE         FATAYE          0061002402302402000000     00000000000000000000000000011417
011         9999900014219639163000000000031000NDIAYE        BINETA          0061003457503457000000     00000000000000000000000000016432
007         9999900014219649626000000000026000TRAORE        KHADIDIATOU     0061002922702922000000     00000000000000000000000000013890
013         9999900014219661012000000000024000KA            DEBO            0061002712502712000000     00000000000000000000000000012891
013         9999900014219662928000000000008000NIASSE        SEYNABOU        0061000922500922000000     00000000000000000000000020004384
013         9999900014219664692000000000009500NDONGO        AWA             0061001112301112000000     00000000000000000000000020005287
013         9999900014219665313000000000014000TOURE         AMY             0061001536901536000000     00000000000000000000000000007304
008         9999900014219666255000000000008000DIENG         KHADY           0061000873500873000000     00000000000000000000000020004152
013         9999900014219671396000000000037500FALL          KHADY           0061004210604210000000     00000000000000000000000000020011
009         9999900014219671496000000000026000FAYE          FIDELINE        0061002949202949000000     00000000000000000000000020014017
011         9999900014219672518000000000013000DIOP          FATOU           0061001447101447000000     00000000000000000000000000006877
013         9999900014310017065000000000103500DIENG         MACISSE         0011011062206000000000     00000000000000000000000000052574
011         9999900014310410087000000000032000SY            MAMADOU         0011002588002588000000     00000000000000000000000000012300
011         9999900014310410490000000000033000DIAGNE        BRAGAYE         0011001932801932000000     00000000000000000000000000009642
013         9999900014310710319000000000062000SO            ABDOU MAJIB     0011006876106000000000     00000000000000000000000020032679
003         9999900014310710356000000000069000SENE          BIRANE          0011007580306000000000     00000000000000000000000020036026
013         9999900014310710783000000000098000SECK          BARA            0011010494806000000000     00000000000000000000000000049877
003         9999900014310710790000000000040000MBAYE         ABDOULAYE       0011004529004529000000     00000000000000000000000020021524
013         9999900014310717154000000000041500SECK          MBOSSE          0011004663704663000000     00000000000000000000000020022165
006         9999900014310761037000000000033500NGOM          MANE            0013001073601073000000     00000000000000000000000000005102
007         9999900014310800091000000000032500SIGNATE       IBRAHIMA        0011002447202447000000     00000000000000000000000000011630
005         9999900014312210157000000000032500SEYDI         SALIF           0011002204302204000000     00000000000000000000000020010476
001         9999900014312210553000000000033000SECK          OUMAR           0011003084003084000000     00000000000000000000000000015355
007         9999900014319605582000000000017000DIARRA        COURA           0061001896101896000000     00000000000000000000000000009011
003         9999900014319611235000000000010000DIOP          FARY            0061001120501120000000     00000000000000000000000000005325
013         9999900014319615458000000000026000NDIAYE        MARIE CATHERINE 0061002904302904000000     00000000000000000000000000013803
013         9999900014319616219000000000044500BA            MAME BAHO       0061004963704963000000     00000000000000000000000000023590
013         9999900014319618402000000000009000FAYE          FATOU           0061001016401016000000     00000000000000000000000000004831
009         9999900014319618781000000000011000BADIANE       KHADY           0061001243001243000000     00000000000000000000000020005907
013         9999900014319618798000000000020500NDIAYE        CODOU           0061002310402310000000     00000000000000000000000000010980
007         9999900014319628484000000000007500AIDARA        TASSIYE         0061000851100851000000     00000000000000000000000000004045
013         9999900014319629592000000000012000DIALLO        FATOU           0061001371601371000000     00000000000000000000000020006518
009         9999900014319629679000000000010500SALL          THIANE          0061001216401216000000     00000000000000000000000020005781
006         9999900014319630558000000000065000NGOM          MANE            0062006829203208000000     00000000000000000000000000032400
007         9999900014319638673000000000050000CISSE         BINETA          0061005608705608000000     00000000000000000000000020026656
009         9999900014319639448000000000015000NDIAYE        AWA             0061001720601720000000     00000000000000000000000020008177
006         9999900014319641614000000000050500DIALLO NDOUR  MAGATTE         0061005702605702000000     00000000000000000000000000027102
011         9999900014319651052000000000033000FALL          SOKHNA          0061003761603761000000     00000000000000000000000020017877
003         9999900014319655646000000000008500NDOYE         AMI             0061000955200955000000     00000000000000000000000000004540
013         9999900014319657472000000000015000DIENG         NOGAYE          0061001700201700000000     00000000000000000000000000008080
006         9999900014319667277000000000019000SECK          NOGOYE          0061002112402112000000     00000000000000000000000020010040
011         9999900014410410325000000000034000SOW           OUMAR           0011000949100949000000     00000000000000000000000000004957
011         9999900014410410398000000000034000FALL          MEDOUNE MBAYE   0011001728701728000000     00000000000000000000000000008216
011         9999900014410417100000000000033000SOW           THIERNO         0011001930801930000000     00000000000000000000000020009176
005         9999900014410420332000000000031500LEYE          ISMA            0011003126803126000000     00000000000000000000000000014860
003         9999900014410530329000000000057000WADE          EL HADJI MALICK 0011006390406000000000     00000000000000000000000020030371
003         9999900014410530865000000000032500NIANG         ALASSANE        0011002412502412000000     00000000000000000000000000011465
009         9999900014410610166000000000042000DIONE         MAMADOU         0011004741204741000000     00000000000000000000000020022533
009         9999900014410610204000000000034000NDAO          IBRAHIMA        0011000973600973000000     00000000000000000000000000004627
013         9999900014410620301000000000034000MBODJ         SAMBA           0011003281903281000000     00000000000000000000000000015598
005         9999900014410630357000000000032500BADIANE       ABDOU           0011001973601973000000     00000000000000000000000000009380
009         9999900014410630498000000000033000GUEYE         PAPA            0011001769501769000000     00000000000000000000000020008410
001         9999900014410710135000000000098000GUEYE         IDRISSA         0011010494806000000000     00000000000000000000000000049877
013         9999900014410710870000000000033500DIAWO         NDIOBDY         0011003820803820000000     00000000000000000000000020018158
001         9999900014410800009000000000032000DIALLO        DIEYNABA        0011002628802628000000     00000000000000000000000000012494
007         9999900014410807018000000000033000DABO          MOUSSA          0011001657301657000000     00000000000000000000000000007876
009         9999900014419627379000000000015500BA            FATOU           0061001743001743000000     00000000000000000000000020008284
005         9999900014419633048000000000009500NDIOME        NDIOLE          0061001110301110000000     00000000000000000000000020005277
009         9999900014419636619000000000011000SECK          FATIM           0061001200101200000000     00000000000000000000000020005704
003         9999900014419636745000000000007500CISSE         RAMA            0061000853100853000000     00000000000000000000000020004055
013         9999900014419638610000000000013500SOW           SIRA            0061001543001543000000     00000000000000000000000000007333
001         9999900014419638640000000000054000DIALLO        DIEYNABA        0062005654502259000000     00000000000000000000000000026821
009         9999900014419643580000000000016000MBAYE         NDEYE           0061001816501816000000     00000000000000000000000000008633
011         9999900014419659557000000000007500BA            BINETA          0061000863300863000000     00000000000000000000000020004103
013         9999900014419665119000000000075500GAYE          FATOU           0061008176206000000000     00000000000000000000000000038858
003         9999900014419671175000000000010500DIOUF         MARIE           0061001196001196000000     00000000000000000000000020005684
005         9999900014510107046000000000036500DIALLO        SALIOU          0011004071804071000000     00000000000000000000000000021282
011         9999900014510410066000000000033000SOW           MAMADOU         0011001869601869000000     00000000000000000000000000008885
009         9999900014510521247000000000033500GUEYE         SERIGNE TACKO   0011001612401612000000     00000000000000000000000000007663
003         9999900014510530154000000000074000FAYE          ERNEST          0011008057906000000000     00000000000000000000000000038296
009         9999900014510610006000000000031500SECK          FRANCOIS ABDOULA0011003012503012000000     00000000000000000000000020015035
009         9999900014510610215000000000033500DIOP          MODOU MATAR     0011001594001594000000     00000000000000000000000000007576
009         9999900014510610505000000000033000DIOP          GORY            0011001587901587000000     00000000000000000000000020007547
009         9999900014510610564000000000032500FAYE          ADDAMA          0011002426702426000000     00000000000000000000000000012106
009         9999900014510610907000000000034000NDIAYE        KHALIDOU        0011001016401016000000     00000000000000000000000020004831
009         9999900014510617120000000000032500BA            ASSANE          0011001841001841000000     00000000000000000000000020008749
005         9999900014510637106000000000033500FALL          AMDY            0011001424601424000000     00000000000000000000000000007110
013         9999900014510710090000000000098500THIAM         ASSANE          0011010547906000000000     00000000000000000000000020050130
006         9999900014510710262000000000037500SENE          FERDINAND       0011004198304198000000     00000000000000000000000000019953
013         9999900014510710768000000000041000NDAO          THIENADO        0011004631004631000000     00000000000000000000000000022009
013         9999900014510711020000000000032500SEYDI         EL HADJI        0011001863401863000000     00000000000000000000000020009293
013         9999900014510717218000000000033000NIASS         LAMINE DIOUCKA  0011001847101847000000     00000000000000000000000020008779
013         9999900014510731082000000000032000NDIAYE        MAMADOU         0011002867602867000000     00000000000000000000000000014987
001         9999900014511017336000000000140000BA            ASTOU           0011014640106000000000     00000000000000000000000000069578
013         9999900014519503438000000000001500DIOUF         GNILANE         0051000183000000000000     00000000000000000000000000000000
013         9999900014519609968000000000004500DIOUF         GNILANE         0061000481700481000000     00000000000000000000000000002289
005         9999900014519611037000000000010000GNING         FATOU           0061001112301112000000     00000000000000000000000000005287
013         9999900014519617527000000000014500MBODJI        LAITY           0061001655301655000000     00000000000000000000000020007867
013         9999900014519626851000000000058500MBAYE         NAFISSATOU      0062006210603049000000     00000000000000000000000020029468
009         9999900014519634154000000000008500DIAGNE        THIORO          0061000955200955000000     00000000000000000000000000004540
013         9999900014519638770000000000061500MANGARA       FANTA           0061006800606000000000     00000000000000000000000000032320
009         9999900014519642061000000000012000SYLLA         AWA             0061001306201306000000     00000000000000000000000000006208
009         9999900014519643490000000000009000NDIAYE        FATOU           0061001038901038000000     00000000000000000000000000004937
013         9999900014519653237000000000025000DIOUF         ASTOU           0061002804302804000000     00000000000000000000000000013328
013         9999900014519654296000000000007500THIAM         COUMBA          0061000869500869000000     00000000000000000000000000004132
013         9999900014519656038000000000020500THIAM         OLY             0061002314502314000000     00000000000000000000000020011000
013         9999900014519664342000000000018500MBAYE         SEYNABOU        0061002090002090000000     00000000000000000000000020009933
013         9999900014519678407000000000021000LY            AMINATA         0061002377802377000000     00000000000000000000000000011301
013         9999900014519680199000000000008000SY            AMY             0061000902100902000000     00000000000000000000000000004287
011         9999900014610410063000000000063500LO            MODOU           0011007037406000000000     00000000000000000000000000038461
005         9999900014610410159000000000046000DIENG         NDIOGOU         0011005171905171000000     00000000000000000000000000027034
005         9999900014610420358000000000069500SOW           PATHE           0011007586406000000000     00000000000000000000000000036055
005         9999900014610510566000000000067000GUEYE         BARRA           0011007355806000000000     00000000000000000000000000034959
003         9999900014610530739000000000034000SENE          JONAME          0011001032701032000000     00000000000000000000000000004908
003         9999900014610530971000000000038000DIALLO        ADAMA           0012004194803604000000     00000000000000000000000020021909
009         9999900014610610477000000000031500DIOUF         JEAN MARIE      0011003075803075000000     00000000000000000000000020014618
009         9999900014610610479000000000047000DIOUF         THIERNO         0011005276005276000000     00000000000000000000000000025075
009         9999900014610610484000000000033500GUEYE         DEMBA           0011001332801332000000     00000000000000000000000000006334
013         9999900014610710079000000000034000KANE          DIADIE          0011001000101000000000     00000000000000000000000000004753
013         9999900014610710261000000000032000NDOUR         DIENE           0011002769602769000000     00000000000000000000000020013163
013         9999900014610710383000000000037500SOUARE        ABDOULAYE       0011004214704214000000     00000000000000000000000000020031
013         9999900014610710635000000000033000NGOM          IDRISSA         0011001792001792000000     00000000000000000000000000008517
013         9999900014610710814000000000032000FALL          CHEIKH          0011002622702622000000     00000000000000000000000020012465
013         9999900014610711036000000000034000KEITA         IDY             0011001165401165000000     00000000000000000000000000005539
013         9999900014610717264000000000038000FALL          KHADY           0011004253404253000000     00000000000000000000000020020215
009         9999900014610730809000000000032500DIOP          MASSAMBA        0011002298202298000000     00000000000000000000000000010922
007         9999900014610800082000000000032000DIA           MAMADOU         0011002567602567000000     00000000000000000000000000012203
003         9999900014612210849000000000034000BARRY         IBRAHIMA        0011000914400914000000     00000000000000000000000000004346
013         9999900014619605638000000000022000BEYE          AWA             0061002510402510000000     00000000000000000000000020011931
002         9999900014619611932000000000016000DEME          PENDA HAMATH    0061001808301808000000     00000000000000000000000020008594
013         9999900014619614831000000000026500NDIAYE        NDEYE FATOU     0061003004403004000000     00000000000000000000000000014278
009         9999900014619623500000000000015500SY            DIBOR           0061001734901734000000     00000000000000000000000000008245
005         9999900014619623667000000000004500BA            AISSATOU        0061000514300514000000     00000000000000000000000000002444
013         9999900014619626076000000000011500SOW           AISSATOU        0061001343001343000000     00000000000000000000000020006383
009         9999900014619631596000000000010000FALL          KHADY           0061001118501118000000     00000000000000000000000020005316
003         9999900014619638098000000000025000NDOYE         FATOU           0061002820702820000000     00000000000000000000000000013405
013         9999900014619642927000000000052500DIOP          MADIALA         0061005929105929000000     00000000000000000000000020028179
011         9999900014619643215000000000009500FALL          KHARY           0061001079701079000000     00000000000000000000000020005131
009         9999900014619649913000000000051000DIAKHATE      MAMA            0061005725005725000000     00000000000000000000000000027209
003         9999900014619650859000000000023500GUEYE         COUMBA          0061002626802626000000     00000000000000000000000000012484
011         9999900014619653048000000000009000SECK          ANTA            0061001034801034000000     00000000000000000000000020004918
007         9999900014619653994000000000017500CAMARA        AISSATOU        0062001827700826000000     00000000000000000000000000008671
009         9999900014619656991000000000031000DIALLO        ASSY            0061003514603514000000     00000000000000000000000020016703
009         9999900014619657473000000000015000DIENG         KHARY           0061001700201700000000     00000000000000000000000000008080
011         9999900014619665797000000000009500KA            DIEYNABA        0061001106201106000000     00000000000000000000000020005257
013         9999900014619670548000000000022000CISSE         AISSATOU        0061002510402510000000     00000000000000000000000020011931
013         9999900014619679347000000000012000DABO          MANSATA         0061001347101347000000     00000000000000000000000000006402
013         9999900014619682326000000000008000DIENG         NGONE           0061000912300912000000     00000000000000000000000000004336
011         9999900014710410270000000000033000NDIAYE        NDIAWAR         0011001869601869000000     00000000000000000000000000008885
011         9999900014710410311000000000032000FALL          SERIGNE         0011002665502665000000     00000000000000000000000000012668
009         9999900014710610238000000000159500FALL          EL HADJI FALILOU0012017087810000000000     00000000000000000000000000081123
009         9999900014710610379000000000031500DIOP          NGAGNE          0011003224803224000000     00000000000000000000000000015326
005         9999900014710630332000000000031500DIOP          MBAYE BABACAR   0011003081903081000000     00000000000000000000000000014647
013         9999900014710711049000000000033000THIAM         CHEIKHOU OUMAR  0011002328802439000000     00000000000000000000000020012125
013         9999900014710717237000000000055000NDIAYE        MAIMOUNA        0011006153606000000000     00000000000000000000000000029246
003         9999900014710720679000000000033500LO            SEYDINA         0011001149101149000000     00000000000000000000000020005461
013         9999900014710730682000000000032000NDAO          BIRANE          0011002686002686000000     00000000000000000000000020012765
007         9999900014710800073000000000033000DANFA         KONABA          0011001869601869000000     00000000000000000000000000008885
007         9999900014710900053000000000032500NDAO          ARFAN           0011003639103639000000     00000000000000000000000020017295
003         9999900014712217438000000000095500NIANG         ABDOULAYE MARCEL0011010219306000000000     00000000000000000000000020048568
003         9999900014719612482000000000012500SOW           COUMBA          0061001381801381000000     00000000000000000000000000006567
011         9999900014719618343000000000004500DIOP          FATOU           0061000508200508000000     00000000000000000000000020002415
005         9999900014719620164000000000011000SECK          FATOU           0061001259301259000000     00000000000000000000000020005985
006         9999900014719625139000000000027500DIONE         DABA            0061003135003135000000     00000000000000000000000020014899
005         9999900014719629735000000000009500BA            KHADY           0061001081701081000000     00000000000000000000000020005141
008         9999900014719635890000000000018500NDIAYE        PENDA  DAME     0061002114502114000000     00000000000000000000000020010049
009         9999900014719637034000000000019500SENE          ROCKY           0061002239002239000000     00000000000000000000000020010641
            9999900014719638452000000000008000DIOP          FATY            0061000887800887000000     00000000000000000000000020004220
009         9999900014719640739000000000030000FALL          FATOU THIOUNE   0061003388103388000000     00000000000000000000000000016102
009         9999900014719640937000000000036000FAYE          NOGAYE          0061004041204041000000     00000000000000000000000020019206
011         9999900014719643320000000000060000SAMBOU        AGNES           0061006661806000000000     00000000000000000000000000031661
007         9999900014719651811000000000010000CISSOKHO      FATOUMATA       0061001128701128000000     00000000000000000000000020005364
013         9999900014719659055000000000010500DIALLO        OUMOU           0061001214401214000000     00000000000000000000000020005772
009         9999900014719663571000000000021000DIOP          ANTA            0061002388002388000000     00000000000000000000000000011349
009         9999900014719665146000000000007500DIOUF         KHADY           0061000847000847000000     00000000000000000000000000004026
013         9999900014719665676000000000023500CAMARA        KHADY           0061002657402657000000     00000000000000000000000000012629
013         9999900014719669945000000000021000DIA           PENDA           0061002345102345000000     00000000000000000000000020011145
011         9999900014719670327000000000032500DIENG         FAMA            0061003630903630000000     00000000000000000000000020017256
005         9999900014719679096000000000018500THIAM         GAMOU           0061002081802081000000     00000000000000000000000000009894
009         9999900014719681541000000000025500BOP           YACINE          0061002898202898000000     00000000000000000000000020013774
011         9999900014810410127000000000033000FALL          ABDOU AZIZ      0011001855301855000000     00000000000000000000000020008817
011         9999900014810417161000000000032500THIAM         NIANIA          0011003645203645000000     00000000000000000000000020017324
005         9999900014810420211000000000034500GAYE          SERIGNE         0011001257301257000000     00000000000000000000000020006257
009         9999900014810420272000000000053000SOW           SOULEYMANE      0011006004606000000000     00000000000000000000000020029963
009         9999900014810420422000000000034000GAKOU         MBAYE           0011001728701728000000     00000000000000000000000000008216
013         9999900014810517201000000000031500NDIAYE        MANEKH          0011003522803522000000     00000000000000000000000000016742
001         9999900014810520008000000000106000RESK          JEAN            0011011256106000000000     00000000000000000000000000053496
003         9999900014810530462000000000036500SENE          DJIBRIL         0011004112604112000000     00000000000000000000000020019546
003         9999900014810531736000000000052500MBAYE         MAMADOU         0012005478001949000000     00000000000000000000000000000000
009         9999900014810610088000000000035500FALL          BABA            0011002518602518000000     00000000000000000000000000011970
009         9999900014810610504000000000034500DIONE         DIAME           0011000969500969000000     00000000000000000000000000004608
009         9999900014810610523000000000032500KONTEYE       ABDOU           0011002200202200000000     00000000000000000000000000010980
009         9999900014810617119000000000032500NGUIRANE      SAER            0011002110402110000000     00000000000000000000000000010030
005         9999900014810630454000000000043000KANE          CHEIKH          0011004843304843000000     00000000000000000000000000024114
013         9999900014810717236000000000032000DRAME         YOUSSOUPHA      0011002459402459000000     00000000000000000000000000011689
013         9999900014810717238000000000033000NDAO          BABACAR 2       0011001865501865000000     00000000000000000000000020008866
006         9999900014810750464000000000032000SARR          ABDOUL MAHMOUT  0011002871702871000000     00000000000000000000000000013648
006         9999900014810761398000000000032000DIOUF         DIBOCOR         0011002788002788000000     00000000000000000000000020013250
007         9999900014810800084000000000033500NDIAYE        MAHAMADOU       0011001571601571000000     00000000000000000000000000007469
007         9999900014810807051000000000034000DIALLO        MAMADOU         0011001112301112000000     00000000000000000000000000005287
001         9999900014812211717000000000078000KOLI          MAMADOU         0011008429306000000000     00000000000000000000000000042059
013         9999900014819507056000000000002000SAMBA         FATOU           0051000166700000000000     00000000000000000000000000000000
013         9999900014819603314000000000016000GUEYE         MARIE           0061001753201753000000     00000000000000000000000000008332
013         9999900014819605873000000000022500DIAGNE        AIDA            0061002539002539000000     00000000000000000000000020012067
006         9999900014819611544000000000008500SARR          TENNING         0061000969500969000000     00000000000000000000000000004608
013         9999900014819612678000000000005500SAMBA         FATOU           0061000579600579000000     00000000000000000000000020002755
009         9999900014819614872000000000020500BA            AISSE           0061002330802330000000     00000000000000000000000020011077
009         9999900014819615495000000000016000N DIAYE       M BENE          0061001804201804000000     00000000000000000000000020008575
003         9999900014819626515000000000029500SYLLA         NDEYE MAREME N. 0062003274502808000000     00000000000000000000000020015555
009         9999900014819626648000000000051000FALL          AMINATA         0061005755605755000000     00000000000000000000000020027354
013         9999900014819628758000000000011500DIOUF         FATOU           0061001308301308000000     00000000000000000000000020006218
009         9999900014819629988000000000013000GUEYE         AMINATA         0061001496101496000000     00000000000000000000000020007110
013         9999900014819637252000000000008500DIOP          YAMA            0061000979700979000000     00000000000000000000000020004656
003         9999900014819638126000000000018500NDIAYE        DOUFI           0061002073702073000000     00000000000000000000000000009855
013         9999900014819641582000000000013500CISSOKHO      SEYNABOU        0061001514401514000000     00000000000000000000000020007197
003         9999900014819649613000000000009000BA            KHADIDIATOU     0061000996000996000000     00000000000000000000000000004734
013         9999900014819649642000000000008500NDIAYE        ARAME           0061000949100949000000     00000000000000000000000000004511
013         9999900014819650933000000000010000DIOP          MAREME          0061001079701079000000     00000000000000000000000000005131
011         9999900014819651585000000000008500DIOP          MAGATTE         0061000910300910000000     00000000000000000000000000004326
003         9999900014819652192000000000037500DIOUF         NOGOYE          0061004247304247000000     00000000000000000000000020020186
013         9999900014819652512000000000021500BADJI         FATOU           0061002404302404000000     00000000000000000000000000011427
005         9999900014819653425000000000014000LO            KHADY           0061001549101549000000     00000000000000000000000000007362
013         9999900014819653564000000000008000FAYE          AMY             0061000877600877000000     00000000000000000000000000004171
011         9999900014819655881000000000011000DIOP          MAIMOUNA        0061001253201253000000     00000000000000000000000020005956
009         9999900014819657450000000000007500DIOP          CODOU           0061000889900889000000     00000000000000000000000020004229
003         9999900014819659295000000000021000SAMACKE       MARIE           0061002349202349000000     00000000000000000000000020011165
013         9999900014819659570000000000024000SOKHNA        NAFISSATOU      0061002690002690000000     00000000000000000000000000012785
011         9999900014819661448000000000026000SOW           DIEYNABA        0061002937002937000000     00000000000000000000000000013958
009         9999900014819670361000000000012000BA            MAIRAME         0061001326701326000000     00000000000000000000000000006305
009         9999900014819671335000000000065500NDIAYE        ROKHAYA         0062006963403657000000     00000000000000000000000000033043
013         9999900014819676024000000000017000SAMB          AISSATOU        0061001894001894000000     00000000000000000000000000009002
007         9999900014819676593000000000015000TRAORE        DIOUMA          0061001679701679000000     00000000000000000000000000007983
013         9999900014819682834000000000046000SOW           FATOU           0061005159605159000000     00000000000000000000000000024522
009         9999900014910017221000000000031500SARR          ROKHAYATOU      0011003226803226000000     00000000000000000000000000015336
001         9999900014910200106000000000048000MBODJ         SAIDOU          0011005406605406000000     00000000000000000000000000025695
011         9999900014910411312000000000034000DIAGNE        BARA            0011001457301457000000     00000000000000000000000000006926
011         9999900014910417197000000000033500MBENGUE       SALIOU          0011001300101300000000     00000000000000000000000000006179
003         9999900014910530725000000000041000FAYE          MODOU           0011004578004578000000     00000000000000000000000020021757
005         9999900014910610174000000000033000FALL          ALIOUNE         0011001534801534000000     00000000000000000000000000007294
009         9999900014910610313000000000049000DIAW          MAMADOU         0011005496405496000000     00000000000000000000000000026122
005         9999900014910620604000000000034000SECK          MOR             0011003335003335000000     00000000000000000000000000016577
009         9999900014910627128000000000042000FALL          NDEYE DEGUENE CA0011004747404747000000     00000000000000000000000000022562
005         9999900014910631634000000000034500DIAGNE        MBAYE           0011003896303896000000     00000000000000000000000020018517
013         9999900014910710233000000000038000FAYE          IBRAHIMA        0011004306504520000000     00000000000000000000000020021486
013         9999900014910710932000000000061000THIONGANE     SOULEYE         0011006794506000000000     00000000000000000000000000032291
013         9999900014910711116000000000032000SY            SORY            0011003592203592000000     00000000000000000000000000017072
013         9999900014910711308000000000056000DIOP          ABDOU TRAORE    0011006284206000000000     00000000000000000000000020029866
013         9999900014910717661000000000052500THIAM         MBAYE           0011005898505898000000     00000000000000000000000000028033
009         9999900014910721414000000000039000FAYE          DJIDIACK        0011004384104384000000     00000000000000000000000000020836
007         9999900014910807127000000000032000DIABY         SITAPHA         0011002451202451000000     00000000000000000000000000012232
007         9999900014910900428000000000043000CAMARA        MAMADY          0011004812704812000000     00000000000000000000000000022873
013         9999900014911011333000000000033500MANSA         MARIE MADELEINE 0011001312401312000000     00000000000000000000000000006237
013         9999900014919616042000000000017000NDIAYE        NDEYE           0061001904301904000000     00000000000000000000000000009050
006         9999900014919619344000000000017000NDOUR         DIAMBOGNE       0061001885901885000000     00000000000000000000000000008963
011         9999900014919629870000000000027000TRAORE        COUMBA          0062003011702710000000     00000000000000000000000020014309
013         9999900014919630334000000000012000BA            FATOU           0061001355201355000000     00000000000000000000000020006441
011         9999900014919633402000000000024000DIOP          MAME DIE        0061002688002688000000     00000000000000000000000000012775
009         9999900014919634157000000000013000DIAGNE        DIOUMA          0061001451201451000000     00000000000000000000000000006897
013         9999900014919640151000000000011000MANE          PENDA           0061001277701277000000     00000000000000000000000020006072
003         9999900014919640558000000000028000THIAMANE      MARIAMA         0061003159503159000000     00000000000000000000000000015016
009         9999900014919641553000000000011500DIOP          PALA            0061001277701277000000     00000000000000000000000000006072
009         9999900014919643590000000000007500NDIAYE        COUNDA          0061000875600875000000     00000000000000000000000020004161
009         9999900014919651018000000000009500NIANG         DIOR            0061001051101051000000     00000000000000000000000000004996
013         9999900014919651452000000000013000NDONG         COUMBA          0061001483801483000000     00000000000000000000000020007052
003         9999900014919656292000000000014000NDIAYE        ADJARA          0061001626701626000000     00000000000000000000000020007731
011         9999900014919666919000000000016500SALL          NDIAYA          0061001830801830000000     00000000000000000000000020008701
009         9999900014919669304000000000010500NDIAYE        MAIMOUNA        0061001179701179000000     00000000000000000000000020005607
006         9999900014919671251000000000021000DIOUF         FATOU           0061002375702375000000     00000000000000000000000020011291
013         9999900014919676938000000000013500NGOM          FATOU           0061001485801485000000     00000000000000000000000020007062
013         9999900014919678223000000000008000DIACK         DIORE           0061000918500918000000     00000000000000000000000020004365
009         9999900014919678577000000000011000LOUM          MAME ANTA       0061001240901240000000     00000000000000000000000020005898
011         9999900015010010938000000000089500GUEYE         IBRAHIMA        0011009641706000000000     00000000000000000000000000045823
011         9999900015010100174000000000069000NDIAYE        MAMADOU         0011007555806000000000     00000000000000000000000000035909
011         9999900015010410293000000000084000DIAGNE        MAKHTAR         0011009090606000000000     00000000000000000000000000043204
011         9999900015010410510000000000033500DIENE         BASSIROU        0011001641001641000000     00000000000000000000000020007799
011         9999900015010410563000000000033000DIACK         MADIACK         0011002073702073000000     00000000000000000000000000009855
011         9999900015010417052000000000031500SARR          RAMA            0011003010503010000000     00000000000000000000000000014308
011         9999900015010417182000000000065000SECK          ALASSANE        0011007153706000000000     00000000000000000000000000033999
013         9999900015010417276000000000035500DIOP          IBRAHIMA        0011002034902034000000     00000000000000000000000000009671
011         9999900015010510838000000000033500SOW           MAMADOU         0011002134902134000000     00000000000000000000000020010622
009         9999900015010520884000000000032000DIA           SERIGNE         0011002763502763000000     00000000000000000000000000013784
003         9999900015010527429000000000032500FAYE          OUSMANE         0011001947101947000000     00000000000000000000000000006722
003         9999900015010531400000000000045000NDIAYE        BABACAR         0011005078005078000000     00000000000000000000000000025288
009         9999900015010610083000000000090500DIONE         NAR             0011009707006000000000     00000000000000000000000000046133
005         9999900015010610281000000000034500GUEYE         ABDOULAYE       0011001389901389000000     00000000000000000000000000007236
013         9999900015010610521000000000046500DIOUF         MOUSTAPHA       0011005206605206000000     00000000000000000000000020024745
009         9999900015010610806000000000033000MBACKE        MODOU           0011001943001943000000     00000000000000000000000000009234
009         9999900015010610828000000000083500FALL          ALY             0011009025306000000000     00000000000000000000000000042893
009         9999900015010617097000000000105000DIAGNE        GUIRANE         0011011176506000000000     00000000000000000000000000058171
005         9999900015010617107000000000051000MBAYE         ALLA            0011005704605704000000     00000000000000000000000000027112
001         9999900015010617148000000000088500DIARRA        FARA            0011009472306000000000     00000000000000000000000000047161
009         9999900015010617151000000000038500FALL          MBACKE          0011004337104337000000     00000000000000000000000020020613
013         9999900015010620413000000000058000NDIAYE        MOUSTAPHA       0011006494506000000000     00000000000000000000000000030865
009         9999900015010620431000000000032500GUEYE         MOUSTAPHA       0011001802201802000000     00000000000000000000000020008565
001         9999900015010630192000000000103000NDIAYE        IBRAHIMA        0012011391709807000000     00000000000000000000000000054116
003         9999900015010630255000000000032500KA            MAMADOU LAMINE  0011002222602222000000     00000000000000000000000020010563
005         9999900015010630439000000000083000TALL          FALLOU          0011008980406000000000     00000000000000000000000000042680
005         9999900015010630804000000000033500DIOP          MOCTAR          0011002214502214000000     00000000000000000000000000011029
013         9999900015010711513000000000033500AW            MOUSSA SOW      0011001479701479000000     00000000000000000000000000007033
013         9999900015010711518000000000034500KEBE          MOUSSA          0011001314401314000000     00000000000000000000000000006538
013         9999900015010711783000000000034000DIOP          SOULEYMANE      0011001061301061000000     00000000000000000000000020005044
013         9999900015010717259000000000055000SARR          DIEBEL          0011006139306000000000     00000000000000000000000000029178
009         9999900015010721744000000000065500DIOP          IBRA            0011007206806000000000     00000000000000000000000020035880
013         9999900015010751821000000000033500BA            MORY            0011001736901736000000     00000000000000000000000020008255
009         9999900015010757163000000000055000CISSE         THIARA          0011006180106000000000     00000000000000000000000000030836
013         9999900015010760432000000000034000TALL          COUMBA NDOFFENE 0011001155201155000000     00000000000000000000000020006033
006         9999900015010760853000000000033000NDIAYE        LEO             0011001834901834000000     00000000000000000000000000009157
013         9999900015010767020000000000032500NDONG         IDRISSA         0011002524702524000000     00000000000000000000000000013192
007         9999900015010800445000000000033000CAMARA        SADIO           0011003045203045000000     00000000000000000000000000014472
007         9999900015011117019000000000049000DIAWARA       HAMADY          0011005545405545000000     00000000000000000000000000026355
013         9999900015012217870000000000056000NDIAYE        BOUBACAR        0011006290406000000000     00000000000000000000000020029895
013         9999900015019010148000000000053500KANE          MODOU           0011006002606000000000     00000000000000000000000020029954
011         9999900015019604967000000000009000SYLL          FARY            0061001061301061000000     00000000000000000000000020005044
013         9999900015019608945000000000024000NDIAYE        COUMBA          0061002718602718000000     00000000000000000000000020012920
009         9999900015019610382000000000011000NIANG         SALIMATA        0061001238901238000000     00000000000000000000000020005888
009         9999900015019611999000000000014500SENE          NOGAYE          0061001634801634000000     00000000000000000000000000007770
005         9999900015019613700000000000008000NIANG         FATOU           0061000926600926000000     00000000000000000000000000004404
009         9999900015019619105000000000004000DIAGNE        SEYNABOU        0061000455100455000000     00000000000000000000000000002163
009         9999900015019619214000000000007000GUEYE         AWA BOUSSO      0061000775600775000000     00000000000000000000000000003686
009         9999900015019619989000000000008000KEBE          FATOU           0061000932700932000000     00000000000000000000000020004433
013         9999900015019620030000000000013500DIOUF         CODOU           0061001526701526000000     00000000000000000000000020007256
007         9999900015019620673000000000012000DRAME         DIEYNABA        0061001310301310000000     00000000000000000000000000006227
009         9999900015019620888000000000019500DIAW          SOKHNA MBACKE   0061002198202198000000     00000000000000000000000020010447
013         9999900015019621972000000000016500DIAGNE        NOGAYE          0061001883801883000000     00000000000000000000000020008953
009         9999900015019629341000000000012500CISSE         BITY            0061001406201406000000     00000000000000000000000020006683
013         9999900015019629434000000000035500FALL          MAGUETTE        0061004028904028000000     00000000000000000000000020019148
013         9999900015019629737000000000017000SALL          BANEL           0061001894001894000000     00000000000000000000000000009002
009         9999900015019630341000000000017000SY            YEUYEUH         0061001908301908000000     00000000000000000000000000009070
005         9999900015019635158000000000013000DIEYE         AMY             0061001449101449000000     00000000000000000000000020006887
005         9999900015019637687000000000023000TOURE         NDOUMBE         0061002614502614000000     00000000000000000000000000012426
013         9999900015019638279000000000048000HANNE         DIBOR           0061005447405447000000     00000000000000000000000020025889
013         9999900015019640105000000000008000THIOYE        NDEYE           0061000881700881000000     00000000000000000000000000004190
006         9999900015019640843000000000018000NDIAYE        DIERY MOUSSA    0061001994101994000000     00000000000000000000000000009477
005         9999900015019641543000000000007500NDIAYE        CODOU           0061000857200857000000     00000000000000000000000000004074
009         9999900015019641549000000000012500SARR          CIRA            0061001394001394000000     00000000000000000000000020006625
005         9999900015019649352000000000013000DIA           AWA             0061001449101449000000     00000000000000000000000000006887
003         9999900015019649808000000000028500NDOUR         DIB TEO         0061003202303202000000     00000000000000000000000000015219
013         9999900015019650856000000000026000GUEYE         FATOU           0061002924802924000000     00000000000000000000000000013900
006         9999900015019650899000000000017000BAKHOUM       GERMAINE        0061001871601871000000     00000000000000000000000000008895
005         9999900015019652590000000000012000MBAYE         FATOU           0061001389901389000000     00000000000000000000000000006606
009         9999900015019656237000000000007500SARR          AISSE           0061000867400867000000     00000000000000000000000000004123
013         9999900015019657291000000000007500GOUMBALLA     BATOR           0061000875600875000000     00000000000000000000000000004161
009         9999900015019659706000000000008000DJIGO         SALIMATA        0061000908200908000000     00000000000000000000000000004317
007         9999900015019659937000000000017000DIALLO        FATOU           0061001916501916000000     00000000000000000000000000009108
009         9999900015019664263000000000016500SARR          AWA             0061001890001890000000     00000000000000000000000000008982
011         9999900015019664280000000000015000MBENGUE       FATOU           0061001671601671000000     00000000000000000000000000007944
013         9999900015019665678000000000022500GUEYE         MBENDA          0061002528802528000000     00000000000000000000000000012018
013         9999900015019667720000000000009500GAYE          ABSA            0061001065401065000000     00000000000000000000000000005063
009         9999900015019669970000000000024500GUISSE        FATOU           0061002743102743000000     00000000000000000000000000013037
009         9999900015019677834000000000010500DIOUF         NDOMBOUR        0061001161301161000000     00000000000000000000000000005519
011         9999900015019678057000000000028500FALL          NGONE DIOGOB    0061003194203194000000     00000000000000000000000000015181
011         9999900015019678763000000000008500BA            AWA             0061000914400914000000     00000000000000000000000000004346
011         9999900015019679429000000000008500SARR          THIANE          0061000914400914000000     00000000000000000000000000004346
013         9999900015019679787000000000030000DIOP          FATOU           0061003359503359000000     00000000000000000000000000015966
009         9999900015019680520000000000026000SENE          YARE            0061002926802926000000     00000000000000000000000000013910
007         9999900015110010398000000000031500DIOUF         MADIOR          0011002863502863000000     00000000000000000000000000013609
011         9999900015110410218000000000032500DIOP          SERIGNE MBAYE   0011002412502412000000     00000000000000000000000000011465
011         9999900015110410240000000000035000SARR          MOHAMADANE      0011001794001794000000     00000000000000000000000000008914
005         9999900015110427145000000000077000NDIAYE        SACOURA         0011008388506000000000     00000000000000000000000020039867
005         9999900015110513516000000000041000THIAW         ELIMANE         0011004622904622000000     00000000000000000000000000024056
011         9999900015110521712000000000034000DIOP          BASSIROU        0011001596101596000000     00000000000000000000000000008313
003         9999900015110531226000000000046000NIANE         ABDOU SAMBA     0011005182105182000000     00000000000000000000000020024628
003         9999900015110531847000000000034000BA            BABACAR         0011001014401014000000     00000000000000000000000000004821
009         9999900015110610376000000000049000KANE          DIEYNABA        0011005506605506000000     00000000000000000000000000026171
009         9999900015110610499000000000033000POUYE         DETHIE          0011001687901687000000     00000000000000000000000000008420
009         9999900015110610654000000000034500SY            ALIOU           0011001422601422000000     00000000000000000000000020006761
013         9999900015110710404000000000062500LAH           BOUBACAR        0011006927206000000000     00000000000000000000000000034561
013         9999900015110710422000000000034000FAYE          MAHAWA          0011001038901038000000     00000000000000000000000000004937
013         9999900015110710869000000000033000SECK          MAMADOU         0011001969601969000000     00000000000000000000000020009361
013         9999900015110711798000000000032500MBAYE         MOHAMED         0011002122602228000000     00000000000000000000000000010592
013         9999900015110711802000000000032000DIOUF         ABDOULAYE       0011003614603614000000     00000000000000000000000000018032
013         9999900015110717467000000000039500DIOUF         LATYR           0011004431004431000000     00000000000000000000000000021059
013         9999900015110721233000000000034000SEYE          MADIAKHATE      0011001112301112000000     00000000000000000000000000005287
013         9999900015110731196000000000033500NDAO          MASSE           0011002437002437000000     00000000000000000000000000011582
013         9999900015110750649000000000032000DIOP          ALASSANE        0011002655302655000000     00000000000000000000000000012620
006         9999900015110761523000000000051000DIOUF         IBRAHIMA        0011005718905718000000     00000000000000000000000000027179
007         9999900015110800102000000000033500DIARRA        ISSA            0011001641001641000000     00000000000000000000000000008575
007         9999900015110800117000000000068500NDAO          OUMAR           0011007547606000000000     00000000000000000000000020035871
003         9999900015111010931000000000034500SECK          MBAYE           0011000953100953000000     00000000000000000000000020004530
011         9999900015119608064000000000009500DIOP          COUMBA          0061001053201053000000     00000000000000000000000020005005
006         9999900015119609207000000000009000DIOUF         MANE            0061000981700981000000     00000000000000000000000000004666
005         9999900015119616435000000000009000SALL          AIDA            0061001008301008000000     00000000000000000000000000004792
013         9999900015119620732000000000005000DIOUF         COUMBA          0061000551100551000000     00000000000000000000000000002619
009         9999900015119621707000000000009500THIAM         NDEYE           0061001079701079000000     00000000000000000000000020005131
009         9999900015119621963000000000011000SARR          NDIACK          0061001257301257000000     00000000000000000000000000005975
007         9999900015119629686000000000012000CISSE         FATOU           0061001336901336000000     00000000000000000000000020006354
003         9999900015119633300000000000012000DIOUF         FATOU           0061001363401363000000     00000000000000000000000000006480
013         9999900015119636310000000000052000DIOP          MAME DIAW       0062005517602973000000     00000000000000000000000000026184
009         9999900015119637705000000000014000KAMA          THIORO          0061001579701579000000     00000000000000000000000020007508
006         9999900015119640779000000000010500DIOUF         COUMBA          0061001226601226000000     00000000000000000000000000005830
011         9999900015119642778000000000009500DIA           SALMA           0061001122601122000000     00000000000000000000000020005335
013         9999900015119643747000000000014000NDIAYE        KHADY           0061001587901587000000     00000000000000000000000020007547
003         9999900015119650110000000000012500FAYE          FATOU SYLLA     0061001400101400000000     00000000000000000000000000006654
013         9999900015119651004000000000042500SENE          ADAMA           0061004788204788000000     00000000000000000000000000022756
009         9999900015119651477000000000010500SECK          ASTOU           0061001194001194000000     00000000000000000000000000005675
009         9999900015119651654000000000008500GAYE          TENING          0061000983800983000000     00000000000000000000000000004675
009         9999900015119651895000000000009500DIOUF         ANTA            0061001075601075000000     00000000000000000000000000005112
009         9999900015119653437000000000015500FALL          AIDA            0061001747101747000000     00000000000000000000000000008303
009         9999900015119653999000000000012500NGOM          DIOUMA          0061001414401414000000     00000000000000000000000020006722
007         9999900015119654525000000000007000DRAME         FATOU           0061000818400818000000     00000000000000000000000000003890
011         9999900015119659555000000000028500GUEYE         AIDA            0061003173803173000000     00000000000000000000000000015084
009         9999900015119662333000000000008000DIOUF         FATOU           0061000912300912000000     00000000000000000000000000004336
011         9999900015119662630000000000011500DIOP          DJEUMB          0061001328701328000000     00000000000000000000000000006315
009         9999900015119663692000000000013500DIAGNE        SEYNABOU        0061001528701528000000     00000000000000000000000020007265
013         9999900015119663989000000000012000SOW           LAMOU           0061001389901389000000     00000000000000000000000000006606
013         9999900015119664725000000000030500BA            FATOU           0061003418703418000000     00000000000000000000000000016248
013         9999900015119669662000000000007500WADE          AMY             0061000857200857000000     00000000000000000000000020004074
013         9999900015119670831000000000021500BOP           AWA             0061002420602420000000     00000000000000000000000000011504
013         9999900015119672731000000000028500SARR          AMINATA         0061003210503210000000     00000000000000000000000000015258
013         9999900015119675736000000000008000BA            AMINATA         0061000932700932000000     00000000000000000000000000004433
013         9999900015119676122000000000014000NDIAYE        AMI             0061001575701575000000     00000000000000000000000000007488
011         9999900015119679238000000000014000GUEYE         MAME DIARRA     0061001563401563000000     00000000000000000000000000007430
011         9999900015119679967000000000018500DIOP          FATOU           0061002116502116000000     00000000000000000000000000010059
009         9999900015119680636000000000008500CISSE         FATOU           0061000994000994000000     00000000000000000000000020004724
013         9999900015210200116000000000066500NDIAYE        BOCAR HAMADY    0011007331306000000000     00000000000000000000000020036579
013         9999900015210200188000000000033000FALL          MAMADOU BAIDY   0011001781801781000000     00000000000000000000000000008885
009         9999900015210300121000000000065000SAMB          THIAM GALLO     0011007180206000000000     00000000000000000000000020034125
008         9999900015210307024000000000079000GAYE          LAMINE          0011008586506000000000     00000000000000000000000000044882
013         9999900015210420712000000000032000TALL          KEBA            0011002990102990000000     00000000000000000000000000014211
003         9999900015210531543000000000032000GUEYE         WALY            0011002918602918000000     00000000000000000000000000013871
009         9999900015210610208000000000147000THIAM         MOHAMADOU LAMINE0011015362606000000000     00000000000000000000000000073012
009         9999900015210610268000000000032500SOW           AWA             0011002218602218000000     00000000000000000000000000010544
009         9999900015210610329000000000034000DIOUF         CHEIKH          0011000896000896000000     00000000000000000000000000004258
005         9999900015210610585000000000068000GUEYE         MOUSSA          0011007468006000000000     00000000000000000000000000035492
009         9999900015210610600000000000034500DIAGNE        MAMADOU         0011001806301890000000     00000000000000000000000000008982
005         9999900015210610741000000000034000SOW           IBRAHIMA        0011001114401169000000     00000000000000000000000000005558
009         9999900015210613115000000000032500NDIAYE        BATHIE          0011002306302306000000     00000000000000000000000020011504
009         9999900015210620591000000000062000SENE          MASSAMBA        0011006898606000000000     00000000000000000000000020032786
013         9999900015210710066000000000038000FOFANA        MOUSSA          0011004233004233000000     00000000000000000000000000021039
013         9999900015210710423000000000081000FALL          BALLA           0012008773606023000000     00000000000000000000000000041655
013         9999900015210710543000000000031000DIALLO        DIAMEL          0011003445203445000000     00000000000000000000000020017188
013         9999900015210711491000000000038000BESSANE       PAMPI           0011004241204241000000     00000000000000000000000000021117
013         9999900015210711936000000000034500THIAM         HAROUNA         0011001065401065000000     00000000000000000000000000005296
013         9999900015210711962000000000033000THIOUB        ALIOU           0011001959401959000000     00000000000000000000000000009778
013         9999900015210730378000000000032500MBODJI        OUSSEYNOU       0011002059402059000000     00000000000000000000000000009787
006         9999900015210760318000000000034000FAYE          COUMBA          0013000873500873000000     00000000000000000000000020004152
007         9999900015210800056000000000033000SALL          AMADOU TIDIANE  0011002351202461000000     00000000000000000000000000011698
007         9999900015210800071000000000031500FALL          MAMADOU         0011002863502863000000     00000000000000000000000020013609
003         9999900015212210463000000000102500CAMARA        MARIETOU        0012011362610000000000     00000000000000000000000020053990
007         9999900015219010280000000000032500DIOUF         MAMADOU LAMINE  0011003608503608000000     00000000000000000000000020017150
006         9999900015219507720000000000003000DIA           RAMATA          0051000333300000000000     00000000000000000000000000000000
003         9999900015219613197000000000005000DIOUF         AWA             0061000565400565000000     00000000000000000000000000002687
007         9999900015219615577000000000014000KANTE         DANKY           0061001577701577000000     00000000000000000000000000007498
005         9999900015219617860000000000043500DIOUF         YACINE          0061004865704865000000     00000000000000000000000000023125
006         9999900015219618608000000000015000DIA           RAMATA          0061001734901734000000     00000000000000000000000020008245
009         9999900015219622477000000000026000SARR          FATOU           0061002924802924000000     00000000000000000000000000013900
013         9999900015219623229000000000012500DIENG         AMINATA         0061001420501420000000     00000000000000000000000000006751
009         9999900015219623250000000000009000NDIAYE        NDIEME          0061001016401016000000     00000000000000000000000000004831
013         9999900015219624857000000000016000SAWANE        BINTOU          0061001826701826000000     00000000000000000000000000008682
005         9999900015219624937000000000032000DIOP          MAGATTE         0062003498302739000000     00000000000000000000000000016614
011         9999900015219625357000000000016500FALL          YACINE          0061001892001892000000     00000000000000000000000020008992
003         9999900015219629196000000000011000MBAYE         AIDA            0061001257301257000000     00000000000000000000000020005975
013         9999900015219629496000000000009500CISSE         FATOU           0061001055201055000000     00000000000000000000000020005015
013         9999900015219634156000000000009500DIALLO        HABY            0061001045001045000000     00000000000000000000000000004966
009         9999900015219634643000000000019000NDIAYE        SALIMATA        0061002153302153000000     00000000000000000000000020010234
005         9999900015219635545000000000044000MBENGUE       MAREME          0061004933104933000000     00000000000000000000000000023445
009         9999900015219635725000000000012500GUEYE         KHADY           0061001426701426000000     00000000000000000000000000006780
013         9999900015219636642000000000014000TOURE         NDEYE YACINE    0061001622601622000000     00000000000000000000000020007712
013         9999900015219638183000000000027500DIEYE         FARIMATA        0061003110503110000000     00000000000000000000000000014783
009         9999900015219639119000000000008000SENE          FATOU           0061000912300912000000     00000000000000000000000020004336
009         9999900015219639120000000000008000POUYE         TENING          0061000912300912000000     00000000000000000000000020004336
003         9999900015219643410000000000010000CISSE         NDIEME SAMB     0061001114401114000000     00000000000000000000000020005296
003         9999900015219649857000000000010500NDOUR         MAME            0061001169501169000000     00000000000000000000000000005558
003         9999900015219650944000000000008000SARR          KHADY           0061000912300912000000     00000000000000000000000000004336
013         9999900015219652092000000000012500CAMARA        MAGATTE         0061001420501420000000     00000000000000000000000000006751
009         9999900015219652284000000000008500DIAGNE        MAGATTE         0061000979700979000000     00000000000000000000000000004656
009         9999900015219653444000000000012500FALL          SEYNABOU        0061001436901436000000     00000000000000000000000020006829
009         9999900015219653727000000000014500SOUGOU        BINETA          0061001624601624000000     00000000000000000000000000007721
011         9999900015219655049000000000009000MBENGUE       AWA             0061001006201006000000     00000000000000000000000000004782
013         9999900015219656037000000000007000SARR          NGUENAR         0061000830700830000000     00000000000000000000000020003948
011         9999900015219657143000000000009500DIOP          BINETOU         0061001100101100000000     00000000000000000000000020005228
009         9999900015219661526000000000010500BOP           KHADY           0061001183801183000000     00000000000000000000000020005626
013         9999900015219662925000000000027500NDONG         KHODIA          0061003096203096000000     00000000000000000000000000014715
007         9999900015219666443000000000017500SYLLA         BAYE            0061001971601971000000     00000000000000000000000000009370
013         9999900015219667198000000000019500DIENG         NDEYE MARIEME   0061002222602222000000     00000000000000000000000000010563
005         9999900015219670228000000000010500DIOUF         FATOU           0061001151101151000000     00000000000000000000000000005471
009         9999900015219670354000000000014000FAYE          ASTOU           0061001571601571000000     00000000000000000000000000007469
013         9999900015219670476000000000019000NDIAYE        FATOU           0061002163502163000000     00000000000000000000000000010282
013         9999900015219672358000000000018000THIAM         BINTA           0061002059402059000000     00000000000000000000000000009787
007         9999900015219672940000000000011000BA            COUMBA          0061001257301257000000     00000000000000000000000000005975
009         9999900015219675973000000000009000KA            DIODIO          0061001040901040000000     00000000000000000000000000004947
013         9999900015219676121000000000014000SIDIBE        BINETA          0061001575701575000000     00000000000000000000000020007488
013         9999900015219676507000000000017500BADJINKA      SIRE            0061001967501967000000     00000000000000000000000020009351
009         9999900015219677992000000000009500TINE          SAYNABOU        0061001081701081000000     00000000000000000000000000005141
011         9999900015219679240000000000032500NIANG         MAGATTE         0061003635003635000000     00000000000000000000000000017276
013         9999900015219680173000000000015500NDIAYE        MAME MBARROU    0061001730801730000000     00000000000000000000000000008226
011         9999900015310300119000000000038000SALL          SAMBA           0011004275904275000000     00000000000000000000000000021282
011         9999900015310410227000000000046000SOW           SAMBA           0011005171905171000000     00000000000000000000000000025754
011         9999900015310410281000000000033000GUEYE         NGAGNE          0011001873601873000000     00000000000000000000000000009797
011         9999900015310411998000000000056000NIANG         MAMADOU         0011006249506000000000     00000000000000000000000020029701
011         9999900015310420175000000000056000SOW           CHEIKH MALICK   0011006278106000000000     00000000000000000000000000029837
013         9999900015310510459000000000031500LO            SERIGNE A MBACKE0011003439103439000000     00000000000000000000000000016345
009         9999900015310511715000000000035000BEYE          NAR             0011001749101749000000     00000000000000000000000000008313
013         9999900015310530966000000000106500GAYE          SOIBOU          0012011747909937000000     00000000000000000000000000055805
009         9999900015310610028000000000031500GUEYE         IBRA            0011003075803075000000     00000000000000000000000000014618
009         9999900015310610143000000000034000NDIAYE        GANA            0011001561401636000000     00000000000000000000000000007779
009         9999900015310611464000000000032500FAYE          VICTOR          0011002314502314000000     00000000000000000000000000011000
009         9999900015310611472000000000034500DIONE         OUSMANE         0011003345203345000000     00000000000000000000000000016616
013         9999900015310630728000000000033000SENE          DALY            0011001671601671000000     00000000000000000000000000007944
013         9999900015310711365000000000047500DIAGNE        NGAGNE          0011005349505349000000     00000000000000000000000000025424
013         9999900015310711854000000000034500SOCE          IBRAHIMA        0011001300101300000000     00000000000000000000000020006460
013         9999900015310712204000000000035000SARR          ISMAILA         0011003900403900000000     00000000000000000000000000018537
013         9999900015310720960000000000080500NDOUR         MANDOUR         0011008702806000000000     00000000000000000000000000045493
013         9999900015310761858000000000035500NDENE         RENE            0011002255302255000000     00000000000000000000000000010719
003         9999900015310762191000000000034000FAYE          GEORGES         0011000851100851000000     00000000000000000000000000004045
007         9999900015310800155000000000033000DIOP          MASSAMBA        0011001634801634000000     00000000000000000000000020007770
013         9999900015319605115000000000009000SENE          FATOU           0061000985800985000000     00000000000000000000000020004685
003         9999900015319608873000000000008000KA            KHARDIATA       0061000898000898000000     00000000000000000000000000004268
001         9999900015319608904000000000017000SAMB          FATOUMATA BINETO0062001859301567000000     00000000000000000000000000008832
008         9999900015319613393000000000019500DIALLO        AMINATA         0061002214502214000000     00000000000000000000000020010525
013         9999900015319614335000000000047500DIENG         DIOR            0061005333105333000000     00000000000000000000000020025346
013         9999900015319615018000000000008000DIAGNE        ABIBATOU        0061000926600926000000     00000000000000000000000020004404
013         9999900015319618302000000000021000SALL          MAIMOUNA        0062002359002210000000     00000000000000000000000000011209
009         9999900015319620182000000000008000SENE          MAME NDELLA     0061000898000898000000     00000000000000000000000020004268
013         9999900015319620352000000000006000SENE          AWA             0061000687800687000000     00000000000000000000000000003269
011         9999900015319620578000000000008500SOW           MARIE           0061000967400967000000     00000000000000000000000020004598
009         9999900015319621631000000000020500BA            ADAMA           0061002283902283000000     00000000000000000000000000010854
009         9999900015319625364000000000011500FAYE          MBENE           0061001287901287000000     00000000000000000000000000006121
009         9999900015319629680000000000010500SY            AMINATA         0061001216401216000000     00000000000000000000000020005781
009         9999900015319631014000000000010500SENE          SAYE            0061001196001196000000     00000000000000000000000020005684
005         9999900015319638869000000000012000TALL          KHADY           0061001316401316000000     00000000000000000000000000006257
013         9999900015319640138000000000009500SOW           SOUNA           0061001087901087000000     00000000000000000000000000005170
009         9999900015319640858000000000018000DIAGNE        NOGAYE          0061002030802030000000     00000000000000000000000000009652
013         9999900015319642335000000000013000CAMARA        BINETOU         0061001453201453000000     00000000000000000000000000007246
013         9999900015319642921000000000032500DIOUF         SELBE           0062003576302686000000     00000000000000000000000000016983
009         9999900015319649563000000000013500SECK          SEYNABOU        0061001549101549000000     00000000000000000000000020007362
013         9999900015319649828000000000011500DIOP          NDEYE COUMBA    0061001304201304000000     00000000000000000000000020006198
009         9999900015319650127000000000023500THIAM         KHADY           0061002637002637000000     00000000000000000000000000012532
009         9999900015319650995000000000013500DIOUF         FATOU           0061001510301510000000     00000000000000000000000000007178
009         9999900015319656461000000000022500WADE          NDEYE THIANE    0061002534902534000000     00000000000000000000000020012047
011         9999900015319657157000000000010500THIAM         NDEYE           0061001173601173000000     00000000000000000000000020005849
011         9999900015319660190000000000017500DIENG         YACINE DIAL     0061001977701977000000     00000000000000000000000000009399
009         9999900015319661189000000000016500NDIAYE        MAGUETTE        0061001869601869000000     00000000000000000000000000008885
009         9999900015319661524000000000010500DIOME         WODE            0061001179701179000000     00000000000000000000000020005607
009         9999900015319666762000000000009500DIOUF         TENING          0061001057201057000000     00000000000000000000000020005025
009         9999900015319666763000000000009500SENE          HELENE          0061001057201057000000     00000000000000000000000020005025
009         9999900015319670920000000000026500POUYE         KHADY           0061002973702973000000     00000000000000000000000020014133
009         9999900015319672891000000000007500SARR          ASTOU           0061000830700830000000     00000000000000000000000000003948
007         9999900015319677039000000000016000NDOYE         HAWA            0062001742601494000000     00000000000000000000000000008278
009         9999900015319678019000000000010500FAYE          THIANE          0061001140901140000000     00000000000000000000000000005684
013         9999900015319679843000000000013500DIENG         OULIMATA        0061001520501520000000     00000000000000000000000000007227
013         9999900015319680927000000000010000FALL          MARIEME         0061001089901089000000     00000000000000000000000000005180
009         9999900015409010089000000000034000DIONE         CHRISTOPHE      0011001759301759000000     00000000000000000000000000008361
009         9999900015410610091000000000073500THIAM         CHEIKH          0011007996606000000000     00000000000000000000000000038005
009         9999900015410610174000000000031500DIAGNE        MICHEL SAMBA    0011003553403553000000     00000000000000000000000000016888
009         9999900015410610489000000000034500MARA          SERIGNE         0011001914501914000000     00000000000000000000000000009516
009         9999900015410610620000000000053000DIOUF         BAKHAO          0011005994405994000000     00000000000000000000000000028489
013         9999900015410710085000000000043000NDIAYE        MAMADOU         0011004839204839000000     00000000000000000000000000024095
013         9999900015410710301000000000045000SOW           CHEIKH TIDIANE  0011005067805067000000     00000000000000000000000000024085
013         9999900015410717083000000000072500NDOUR         DAOUDA          0011007886406000000000     00000000000000000000000000039266
013         9999900015419615324000000000018500SARR          AISSATOU        0061002124702124000000     00000000000000000000000020010098
009         9999900015419617952000000000009000MBAYE         OUMY            0061001024601024000000     00000000000000000000000000004869
009         9999900015419620305000000000025500BA            FATOU           0061002892102892000000     00000000000000000000000020013745
009         9999900015419624245000000000016000KANE          KHOUDIA         0061001779801779000000     00000000000000000000000020008458
013         9999900015419625819000000000017500SOW           FATOUMATA       0061001979801979000000     00000000000000000000000020009409
009         9999900015419626436000000000008000MBAYE         NDEYE AWA       0061000942900942000000     00000000000000000000000020004481
009         9999900015419629237000000000008500DIOUF         SUZANE NAR      0061000953100953000000     00000000000000000000000000004530
013         9999900015419633472000000000027500SOW           THIORO          0061003108403108000000     00000000000000000000000000014773
013         9999900015419633572000000000020000MBAYE         PEINDA          0061002236902236000000     00000000000000000000000020010631
005         9999900015419636194000000000011500NDIAYE        FATY            0061001292001292000000     00000000000000000000000000006140
009         9999900015419639321000000000015500DIASSE        SOKHNA          0061001763401763000000     00000000000000000000000020008381
013         9999900015419639785000000000045000DOUCOURE      FATOU           0061005029005029000000     00000000000000000000000000023901
009         9999900015419640343000000000025000NIOUKY        DIMINGA         0061002834902834000000     00000000000000000000000000013473
009         9999900015419641744000000000019000FAYE          NDAMBAO         0061002139002139000000     00000000000000000000000000010166
009         9999900015419649889000000000009000DIAGNE        FATOU           0061001024601024000000     00000000000000000000000000004869
013         9999900015419652077000000000011500FALL          FATOU           0061001322601322000000     00000000000000000000000000006286
005         9999900015419652300000000000007500NIANG         AMY             0061000834800834000000     00000000000000000000000000003967
006         9999900015419652485000000000015000NDIAYE        DABA ROKHY      0061001728701728000000     00000000000000000000000000008216
